{
    "_format": "hh-sol-artifact-1",
    "contractName": "TokenFaucet",
    "sourceName": "contracts/TokenFaucet.sol",
    "abi": [
        {
            "inputs": [
                {
                    "internalType": "string",
                    "name": "name",
                    "type": "string"
                },
                {
                    "internalType": "string",
                    "name": "symbol",
                    "type": "string"
                }
            ],
            "stateMutability": "nonpayable",
            "type": "constructor"
        },
        {
            "anonymous": false,
            "inputs": [
                {
                    "indexed": true,
                    "internalType": "address",
                    "name": "owner",
                    "type": "address"
                },
                {
                    "indexed": true,
                    "internalType": "address",
                    "name": "spender",
                    "type": "address"
                },
                {
                    "indexed": false,
                    "internalType": "uint256",
                    "name": "value",
                    "type": "uint256"
                }
            ],
            "name": "Approval",
            "type": "event"
        },
        {
            "anonymous": false,
            "inputs": [
                {
                    "indexed": true,
                    "internalType": "address",
                    "name": "from",
                    "type": "address"
                },
                {
                    "indexed": true,
                    "internalType": "address",
                    "name": "to",
                    "type": "address"
                },
                {
                    "indexed": false,
                    "internalType": "uint256",
                    "name": "value",
                    "type": "uint256"
                }
            ],
            "name": "Transfer",
            "type": "event"
        },
        {
            "inputs": [
                {
                    "internalType": "address",
                    "name": "owner",
                    "type": "address"
                },
                {
                    "internalType": "address",
                    "name": "spender",
                    "type": "address"
                }
            ],
            "name": "allowance",
            "outputs": [
                {
                    "internalType": "uint256",
                    "name": "",
                    "type": "uint256"
                }
            ],
            "stateMutability": "view",
            "type": "function"
        },
        {
            "inputs": [
                {
                    "internalType": "address",
                    "name": "spender",
                    "type": "address"
                },
                {
                    "internalType": "uint256",
                    "name": "amount",
                    "type": "uint256"
                }
            ],
            "name": "approve",
            "outputs": [
                {
                    "internalType": "bool",
                    "name": "",
                    "type": "bool"
                }
            ],
            "stateMutability": "nonpayable",
            "type": "function"
        },
        {
            "inputs": [
                {
                    "internalType": "address",
                    "name": "account",
                    "type": "address"
                }
            ],
            "name": "balanceOf",
            "outputs": [
                {
                    "internalType": "uint256",
                    "name": "",
                    "type": "uint256"
                }
            ],
            "stateMutability": "view",
            "type": "function"
        },
        {
            "inputs": [],
            "name": "decimals",
            "outputs": [
                {
                    "internalType": "uint8",
                    "name": "",
                    "type": "uint8"
                }
            ],
            "stateMutability": "view",
            "type": "function"
        },
        {
            "inputs": [
                {
                    "internalType": "address",
                    "name": "spender",
                    "type": "address"
                },
                {
                    "internalType": "uint256",
                    "name": "subtractedValue",
                    "type": "uint256"
                }
            ],
            "name": "decreaseAllowance",
            "outputs": [
                {
                    "internalType": "bool",
                    "name": "",
                    "type": "bool"
                }
            ],
            "stateMutability": "nonpayable",
            "type": "function"
        },
        {
            "inputs": [
                {
                    "internalType": "address",
                    "name": "requestor",
                    "type": "address"
                }
            ],
            "name": "getLockTime",
            "outputs": [
                {
                    "internalType": "uint256",
                    "name": "",
                    "type": "uint256"
                }
            ],
            "stateMutability": "view",
            "type": "function"
        },
        {
            "inputs": [
                {
                    "internalType": "address",
                    "name": "spender",
                    "type": "address"
                },
                {
                    "internalType": "uint256",
                    "name": "addedValue",
                    "type": "uint256"
                }
            ],
            "name": "increaseAllowance",
            "outputs": [
                {
                    "internalType": "bool",
                    "name": "",
                    "type": "bool"
                }
            ],
            "stateMutability": "nonpayable",
            "type": "function"
        },
        {
            "inputs": [
                {
                    "internalType": "address",
                    "name": "",
                    "type": "address"
                }
            ],
            "name": "lockTime",
            "outputs": [
                {
                    "internalType": "uint256",
                    "name": "",
                    "type": "uint256"
                }
            ],
            "stateMutability": "view",
            "type": "function"
        },
        {
            "inputs": [],
            "name": "maxAmountAllowed",
            "outputs": [
                {
                    "internalType": "uint256",
                    "name": "",
                    "type": "uint256"
                }
            ],
            "stateMutability": "view",
            "type": "function"
        },
        {
            "inputs": [],
            "name": "name",
            "outputs": [
                {
                    "internalType": "string",
                    "name": "",
                    "type": "string"
                }
            ],
            "stateMutability": "view",
            "type": "function"
        },
        {
            "inputs": [
                {
                    "internalType": "address",
                    "name": "requestor",
                    "type": "address"
                },
                {
                    "internalType": "uint256",
                    "name": "amount",
                    "type": "uint256"
                }
            ],
            "name": "requestTokens",
            "outputs": [],
            "stateMutability": "nonpayable",
            "type": "function"
        },
        {
            "inputs": [],
            "name": "symbol",
            "outputs": [
                {
                    "internalType": "string",
                    "name": "",
                    "type": "string"
                }
            ],
            "stateMutability": "view",
            "type": "function"
        },
        {
            "inputs": [],
            "name": "totalSupply",
            "outputs": [
                {
                    "internalType": "uint256",
                    "name": "",
                    "type": "uint256"
                }
            ],
            "stateMutability": "view",
            "type": "function"
        },
        {
            "inputs": [
                {
                    "internalType": "address",
                    "name": "to",
                    "type": "address"
                },
                {
                    "internalType": "uint256",
                    "name": "amount",
                    "type": "uint256"
                }
            ],
            "name": "transfer",
            "outputs": [
                {
                    "internalType": "bool",
                    "name": "",
                    "type": "bool"
                }
            ],
            "stateMutability": "nonpayable",
            "type": "function"
        },
        {
            "inputs": [
                {
                    "internalType": "address",
                    "name": "from",
                    "type": "address"
                },
                {
                    "internalType": "address",
                    "name": "to",
                    "type": "address"
                },
                {
                    "internalType": "uint256",
                    "name": "amount",
                    "type": "uint256"
                }
            ],
            "name": "transferFrom",
            "outputs": [
                {
                    "internalType": "bool",
                    "name": "",
                    "type": "bool"
                }
            ],
            "stateMutability": "nonpayable",
            "type": "function"
        }
    ],
    "bytecode": "0x6080604052678ac7230489e800006005553480156200001d57600080fd5b5060405162001ead38038062001ead833981810160405281019062000043919062000343565b818181600390805190602001906200005d92919062000221565b5080600490805190602001906200007692919062000221565b50505062000096336a295be96e640669720000006200009e60201b60201c565b505062000620565b600073ffffffffffffffffffffffffffffffffffffffff168273ffffffffffffffffffffffffffffffffffffffff16141562000111576040517f08c379a0000000000000000000000000000000000000000000000000000000008152600401620001089062000409565b60405180910390fd5b62000125600083836200021760201b60201c565b8060026000828254620001399190620004c0565b92505081905550806000808473ffffffffffffffffffffffffffffffffffffffff1673ffffffffffffffffffffffffffffffffffffffff1681526020019081526020016000206000828254620001909190620004c0565b925050819055508173ffffffffffffffffffffffffffffffffffffffff16600073ffffffffffffffffffffffffffffffffffffffff167fddf252ad1be2c89b69c2b068fc378daa952ba7f163c4a11628f55a4df523b3ef83604051620001f791906200042b565b60405180910390a362000213600083836200021c60201b60201c565b5050565b505050565b505050565b8280546200022f906200055d565b90600052602060002090601f0160209004810192826200025357600085556200029f565b82601f106200026e57805160ff19168380011785556200029f565b828001600101855582156200029f579182015b828111156200029e57825182559160200191906001019062000281565b5b509050620002ae9190620002b2565b5090565b5b80821115620002cd576000816000905550600101620002b3565b5090565b6000620002e8620002e2846200047c565b62000448565b9050828152602081018484840111156200030157600080fd5b6200030e84828562000527565b509392505050565b600082601f8301126200032857600080fd5b81516200033a848260208601620002d1565b91505092915050565b600080604083850312156200035757600080fd5b600083015167ffffffffffffffff8111156200037257600080fd5b620003808582860162000316565b925050602083015167ffffffffffffffff8111156200039e57600080fd5b620003ac8582860162000316565b9150509250929050565b6000620003c5601f83620004af565b91507f45524332303a206d696e7420746f20746865207a65726f2061646472657373006000830152602082019050919050565b62000403816200051d565b82525050565b600060208201905081810360008301526200042481620003b6565b9050919050565b6000602082019050620004426000830184620003f8565b92915050565b6000604051905081810181811067ffffffffffffffff82111715620004725762000471620005f1565b5b8060405250919050565b600067ffffffffffffffff8211156200049a5762000499620005f1565b5b601f19601f8301169050602081019050919050565b600082825260208201905092915050565b6000620004cd826200051d565b9150620004da836200051d565b9250827fffffffffffffffffffffffffffffffffffffffffffffffffffffffffffffffff0382111562000512576200051162000593565b5b828201905092915050565b6000819050919050565b60005b83811015620005475780820151818401526020810190506200052a565b8381111562000557576000848401525b50505050565b600060028204905060018216806200057657607f821691505b602082108114156200058d576200058c620005c2565b5b50919050565b7f4e487b7100000000000000000000000000000000000000000000000000000000600052601160045260246000fd5b7f4e487b7100000000000000000000000000000000000000000000000000000000600052602260045260246000fd5b7f4e487b7100000000000000000000000000000000000000000000000000000000600052604160045260246000fd5b61187d80620006306000396000f3fe608060405234801561001057600080fd5b50600436106100f55760003560e01c806395d89b4111610097578063aa31aee811610066578063aa31aee8146102c2578063af421564146102f2578063bc55e79e1461030e578063dd62ed3e1461032c576100f5565b806395d89b4114610214578063a457c2d714610232578063a4beda6314610262578063a9059cbb14610292576100f5565b806323b872dd116100d357806323b872dd14610166578063313ce5671461019657806339509351146101b457806370a08231146101e4576100f5565b806306fdde03146100fa578063095ea7b31461011857806318160ddd14610148575b600080fd5b61010261035c565b60405161010f919061148c565b60405180910390f35b610132600480360381019061012d9190611045565b6103ee565b60405161013f9190611471565b60405180910390f35b610150610411565b60405161015d91906115ee565b60405180910390f35b610180600480360381019061017b9190610ff6565b61041b565b60405161018d9190611471565b60405180910390f35b61019e61044a565b6040516101ab9190611609565b60405180910390f35b6101ce60048036038101906101c99190611045565b610453565b6040516101db9190611471565b60405180910390f35b6101fe60048036038101906101f99190610f91565b6104fd565b60405161020b91906115ee565b60405180910390f35b61021c610545565b604051610229919061148c565b60405180910390f35b61024c60048036038101906102479190611045565b6105d7565b6040516102599190611471565b60405180910390f35b61027c60048036038101906102779190610f91565b6106c1565b60405161028991906115ee565b60405180910390f35b6102ac60048036038101906102a79190611045565b6106d9565b6040516102b99190611471565b60405180910390f35b6102dc60048036038101906102d79190610f91565b6106fc565b6040516102e991906115ee565b60405180910390f35b61030c60048036038101906103079190611045565b610745565b005b610316610890565b60405161032391906115ee565b60405180910390f35b61034660048036038101906103419190610fba565b610896565b60405161035391906115ee565b60405180910390f35b60606003805461036b90611778565b80601f016020809104026020016040519081016040528092919081815260200182805461039790611778565b80156103e45780601f106103b9576101008083540402835291602001916103e4565b820191906000526020600020905b8154815290600101906020018083116103c757829003601f168201915b5050505050905090565b6000806103f961091d565b9050610406818585610925565b600191505092915050565b6000600254905090565b60008061042661091d565b9050610433858285610af0565b61043e858585610b7c565b60019150509392505050565b60006012905090565b60008061045e61091d565b90506104f2818585600160008673ffffffffffffffffffffffffffffffffffffffff1673ffffffffffffffffffffffffffffffffffffffff16815260200190815260200160002060008973ffffffffffffffffffffffffffffffffffffffff1673ffffffffffffffffffffffffffffffffffffffff168152602001908152602001600020546104ed9190611640565b610925565b600191505092915050565b60008060008373ffffffffffffffffffffffffffffffffffffffff1673ffffffffffffffffffffffffffffffffffffffff168152602001908152602001600020549050919050565b60606004805461055490611778565b80601f016020809104026020016040519081016040528092919081815260200182805461058090611778565b80156105cd5780601f106105a2576101008083540402835291602001916105cd565b820191906000526020600020905b8154815290600101906020018083116105b057829003601f168201915b5050505050905090565b6000806105e261091d565b90506000600160008373ffffffffffffffffffffffffffffffffffffffff1673ffffffffffffffffffffffffffffffffffffffff16815260200190815260200160002060008673ffffffffffffffffffffffffffffffffffffffff1673ffffffffffffffffffffffffffffffffffffffff168152602001908152602001600020549050838110156106a8576040517f08c379a000000000000000000000000000000000000000000000000000000000815260040161069f906115ae565b60405180910390fd5b6106b58286868403610925565b60019250505092915050565b60066020528060005260406000206000915090505481565b6000806106e461091d565b90506106f1818585610b7c565b600191505092915050565b6000600660008373ffffffffffffffffffffffffffffffffffffffff1673ffffffffffffffffffffffffffffffffffffffff168152602001908152602001600020549050919050565b600660003373ffffffffffffffffffffffffffffffffffffffff1673ffffffffffffffffffffffffffffffffffffffff1681526020019081526020016000205442116107c6576040517f08c379a00000000000000000000000000000000000000000000000000000000081526004016107bd9061154e565b60405180910390fd5b600554670de0b6b3a7640000826107dd9190611696565b111561081e576040517f08c379a00000000000000000000000000000000000000000000000000000000081526004016108159061150e565b60405180910390fd5b61083b82670de0b6b3a7640000836108369190611696565b610dfd565b610384426108499190611640565b600660003373ffffffffffffffffffffffffffffffffffffffff1673ffffffffffffffffffffffffffffffffffffffff168152602001908152602001600020819055505050565b60055481565b6000600160008473ffffffffffffffffffffffffffffffffffffffff1673ffffffffffffffffffffffffffffffffffffffff16815260200190815260200160002060008373ffffffffffffffffffffffffffffffffffffffff1673ffffffffffffffffffffffffffffffffffffffff16815260200190815260200160002054905092915050565b600033905090565b600073ffffffffffffffffffffffffffffffffffffffff168373ffffffffffffffffffffffffffffffffffffffff161415610995576040517f08c379a000000000000000000000000000000000000000000000000000000000815260040161098c9061158e565b60405180910390fd5b600073ffffffffffffffffffffffffffffffffffffffff168273ffffffffffffffffffffffffffffffffffffffff161415610a05576040517f08c379a00000000000000000000000000000000000000000000000000000000081526004016109fc906114ce565b60405180910390fd5b80600160008573ffffffffffffffffffffffffffffffffffffffff1673ffffffffffffffffffffffffffffffffffffffff16815260200190815260200160002060008473ffffffffffffffffffffffffffffffffffffffff1673ffffffffffffffffffffffffffffffffffffffff168152602001908152602001600020819055508173ffffffffffffffffffffffffffffffffffffffff168373ffffffffffffffffffffffffffffffffffffffff167f8c5be1e5ebec7d5bd14f71427d1e84f3dd0314c0f7b2291e5b200ac8c7c3b92583604051610ae391906115ee565b60405180910390a3505050565b6000610afc8484610896565b90507fffffffffffffffffffffffffffffffffffffffffffffffffffffffffffffffff8114610b765781811015610b68576040517f08c379a0000000000000000000000000000000000000000000000000000000008152600401610b5f906114ee565b60405180910390fd5b610b758484848403610925565b5b50505050565b600073ffffffffffffffffffffffffffffffffffffffff168373ffffffffffffffffffffffffffffffffffffffff161415610bec576040517f08c379a0000000000000000000000000000000000000000000000000000000008152600401610be39061156e565b60405180910390fd5b600073ffffffffffffffffffffffffffffffffffffffff168273ffffffffffffffffffffffffffffffffffffffff161415610c5c576040517f08c379a0000000000000000000000000000000000000000000000000000000008152600401610c53906114ae565b60405180910390fd5b610c67838383610f5d565b60008060008573ffffffffffffffffffffffffffffffffffffffff1673ffffffffffffffffffffffffffffffffffffffff16815260200190815260200160002054905081811015610ced576040517f08c379a0000000000000000000000000000000000000000000000000000000008152600401610ce49061152e565b60405180910390fd5b8181036000808673ffffffffffffffffffffffffffffffffffffffff1673ffffffffffffffffffffffffffffffffffffffff16815260200190815260200160002081905550816000808573ffffffffffffffffffffffffffffffffffffffff1673ffffffffffffffffffffffffffffffffffffffff1681526020019081526020016000206000828254610d809190611640565b925050819055508273ffffffffffffffffffffffffffffffffffffffff168473ffffffffffffffffffffffffffffffffffffffff167fddf252ad1be2c89b69c2b068fc378daa952ba7f163c4a11628f55a4df523b3ef84604051610de491906115ee565b60405180910390a3610df7848484610f62565b50505050565b600073ffffffffffffffffffffffffffffffffffffffff168273ffffffffffffffffffffffffffffffffffffffff161415610e6d576040517f08c379a0000000000000000000000000000000000000000000000000000000008152600401610e64906115ce565b60405180910390fd5b610e7960008383610f5d565b8060026000828254610e8b9190611640565b92505081905550806000808473ffffffffffffffffffffffffffffffffffffffff1673ffffffffffffffffffffffffffffffffffffffff1681526020019081526020016000206000828254610ee09190611640565b925050819055508173ffffffffffffffffffffffffffffffffffffffff16600073ffffffffffffffffffffffffffffffffffffffff167fddf252ad1be2c89b69c2b068fc378daa952ba7f163c4a11628f55a4df523b3ef83604051610f4591906115ee565b60405180910390a3610f5960008383610f62565b5050565b505050565b505050565b600081359050610f7681611819565b92915050565b600081359050610f8b81611830565b92915050565b600060208284031215610fa357600080fd5b6000610fb184828501610f67565b91505092915050565b60008060408385031215610fcd57600080fd5b6000610fdb85828601610f67565b9250506020610fec85828601610f67565b9150509250929050565b60008060006060848603121561100b57600080fd5b600061101986828701610f67565b935050602061102a86828701610f67565b925050604061103b86828701610f7c565b9150509250925092565b6000806040838503121561105857600080fd5b600061106685828601610f67565b925050602061107785828601610f7c565b9150509250929050565b61108a81611702565b82525050565b600061109b82611624565b6110a5818561162f565b93506110b5818560208601611745565b6110be81611808565b840191505092915050565b60006110d660238361162f565b91507f45524332303a207472616e7366657220746f20746865207a65726f206164647260008301527f65737300000000000000000000000000000000000000000000000000000000006020830152604082019050919050565b600061113c60228361162f565b91507f45524332303a20617070726f766520746f20746865207a65726f20616464726560008301527f73730000000000000000000000000000000000000000000000000000000000006020830152604082019050919050565b60006111a2601d8361162f565b91507f45524332303a20696e73756666696369656e7420616c6c6f77616e63650000006000830152602082019050919050565b60006111e260198361162f565b91507f616d6f756e742072657175657374656420746f6f2068696768000000000000006000830152602082019050919050565b600061122260268361162f565b91507f45524332303a207472616e7366657220616d6f756e742065786365656473206260008301527f616c616e636500000000000000000000000000000000000000000000000000006020830152604082019050919050565b600061128860318361162f565b91507f6c6f636b2074696d6520686173206e6f7420657870697265642e20506c65617360008301527f652074727920616761696e206c617465720000000000000000000000000000006020830152604082019050919050565b60006112ee60258361162f565b91507f45524332303a207472616e736665722066726f6d20746865207a65726f20616460008301527f64726573730000000000000000000000000000000000000000000000000000006020830152604082019050919050565b600061135460248361162f565b91507f45524332303a20617070726f76652066726f6d20746865207a65726f2061646460008301527f72657373000000000000000000000000000000000000000000000000000000006020830152604082019050919050565b60006113ba60258361162f565b91507f45524332303a2064656372656173656420616c6c6f77616e63652062656c6f7760008301527f207a65726f0000000000000000000000000000000000000000000000000000006020830152604082019050919050565b6000611420601f8361162f565b91507f45524332303a206d696e7420746f20746865207a65726f2061646472657373006000830152602082019050919050565b61145c8161172e565b82525050565b61146b81611738565b82525050565b60006020820190506114866000830184611081565b92915050565b600060208201905081810360008301526114a68184611090565b905092915050565b600060208201905081810360008301526114c7816110c9565b9050919050565b600060208201905081810360008301526114e78161112f565b9050919050565b6000602082019050818103600083015261150781611195565b9050919050565b60006020820190508181036000830152611527816111d5565b9050919050565b6000602082019050818103600083015261154781611215565b9050919050565b600060208201905081810360008301526115678161127b565b9050919050565b60006020820190508181036000830152611587816112e1565b9050919050565b600060208201905081810360008301526115a781611347565b9050919050565b600060208201905081810360008301526115c7816113ad565b9050919050565b600060208201905081810360008301526115e781611413565b9050919050565b60006020820190506116036000830184611453565b92915050565b600060208201905061161e6000830184611462565b92915050565b600081519050919050565b600082825260208201905092915050565b600061164b8261172e565b91506116568361172e565b9250827fffffffffffffffffffffffffffffffffffffffffffffffffffffffffffffffff0382111561168b5761168a6117aa565b5b828201905092915050565b60006116a18261172e565b91506116ac8361172e565b9250817fffffffffffffffffffffffffffffffffffffffffffffffffffffffffffffffff04831182151516156116e5576116e46117aa565b5b828202905092915050565b60006116fb8261170e565b9050919050565b60008115159050919050565b600073ffffffffffffffffffffffffffffffffffffffff82169050919050565b6000819050919050565b600060ff82169050919050565b60005b83811015611763578082015181840152602081019050611748565b83811115611772576000848401525b50505050565b6000600282049050600182168061179057607f821691505b602082108114156117a4576117a36117d9565b5b50919050565b7f4e487b7100000000000000000000000000000000000000000000000000000000600052601160045260246000fd5b7f4e487b7100000000000000000000000000000000000000000000000000000000600052602260045260246000fd5b6000601f19601f8301169050919050565b611822816116f0565b811461182d57600080fd5b50565b6118398161172e565b811461184457600080fd5b5056fea26469706673582212205647ae3f9c5b993ba928003a60aebe6810d0df6333dd254a41d79e151589c4a064736f6c63430008000033",
    "linkReferences": {},
    "deployedLinkReferences": {}
}